:1000000026C1000052C1000050C100004EC10000D6
:100010004CC100004AC1000048C1000046C10000B8
:1000200044C1000042C1000040C100003EC10000C8
:100030003CC100003AC1000038C1000036C10000D8
:1000400034C1000032C1000030C100002EC10000E8
:100050002CC100002AC1000028C10000B9C3000063
:1000600024C1000028C40000FDC300001EC1000020
:100070001CC100001AC1000018C1000016C1000018
:1000800014C1000012C1000010C100000EC1000028
:100090000CC100000AC1000008C1000006C1000038
:1000A00004C1000002C1000000C10000FEC0000049
:1000B000FCC00000FAC00000F8C00000F6C000005C
:1000C000F4C00000F2C00000F0C00000EEC000006C
:1000D000ECC00000EAC00000E8C00000E6C000007C
:1000E000E4C00000F102F402E302E702ED022B0398
:1000F000F802FC02020306030A03100314031803A8
:100100002B031E0322032603A905AE05B305BD0577
:10011000C7054006D105D905E105EB05F505FF0545
:100120000E061806400622062C06360600002100A0
:10013000240027002A002D003000330001010000B8
:10014000040107010A0100002200250028002B00FD
:100150002E003100340002010000050108010B01EE
:10016000000020002300260029002C002F00320070
:100170000001000003010601090105050505070549
:1001800008080808020202020A0A08080404040413
:10019000010101010101010103030303030303033F
:1001A000040707070C0C0C0C0C0C0C0C02020202CE
:1001B00006060606060606060B0B0B0B0B0B0B0BB7
:1001C0000102102020080810204010204080020169
:1001D000020108040201010204081020408080404E
:1001E000201008040201800402018040201008044D
:1001F00002010804020101020408102040800102EB
:1002000004081020408000000A0B02090C0D0E08A3
:1002100007030401000000000000000000000000CF
:1002200000000000000000000000000000000000CE
:10023000000012111000000000000000000000008B
:10024000000000000000000000000000E90611248A
:100250001FBECFEFD1E2DEBFCDBF00E00CBF12E08A
:10026000A0E0B2E0ECE8FEE000E00BBF02C00790C7
:100270000D92A832B107D9F722E0A8E2B2E001C09E
:100280001D92AE3CB207E1F711E0C7E2D1E000E019
:1002900005C021970109802FFE01EAD5C632D1079A
:1002A00080E00807B1F73DD3EFC5AACEEF92FF92E9
:1002B0000F931F93CF93DF937B018C01C0E0D0E0BD
:1002C000CE15DF0509F449C02FB7F89480912D02AF
:1002D00090912E02A0912F02B09130022FBF8093F7
:1002E000390290933A02A0933B02B0933C02E09112
:1002F0003102F09132020680F781E02D81E392E035
:10030000199597FF25C08FB7F89440912D02509111
:100310002E0260912F02709130028FBF80913902BE
:1003200090913A02A0913B02B0913C02481B590BBC
:100330006A0B7B0B8091350290913602A0913702B7
:10034000B0913802481759076A077B0780F205C049
:10035000F80181938F012196B3CFCE01DF91CF9128
:100360001F910F91FF90EF900895CF92DF92EF923F
:10037000FF920F931F93CF93DF936C017A018B0150
:10038000C0E0D0E0CE15DF0589F0D8016D918D0178
:10039000D601ED91FC910190F081E02DC6011995F7
:1003A000892B11F47E0102C02196ECCFC701DF91A9
:1003B000CF911F910F91FF90EF90DF90CF90089514
:1003C000FC01918D828D981761F0828DDF01A80F5D
:1003D000B11D5D968C91928D9F5F9F73928F90E07F
:1003E00008958FEF9FEF0895FC01918D828D9817EE
:1003F00031F0828DE80FF11D858D90E008958FEF2B
:100400009FEF0895FC01918D228D892F90E0805CF3
:100410009F4F821B91098F739927089581E392E082
:10042000F1DF21E0892B09F420E0822F0895FC01FF
:10043000848DDF01A80FB11DA35ABF4F2C91848D6D
:1004400090E001968F739927848FA689B7892C93A2
:10045000A089B1898C9180648C93938D848D98133D
:1004600006C00288F389E02D80818F7D8083089506
:10047000EF92FF920F931F93CF93DF93EC0181E0F4
:10048000888F9B8D8C8D981305C0E889F9898081B0
:1004900085FD23C0F62E0B8D10E00F5F1F4F0F73ED
:1004A0001127E02E8C8DE8120BC00FB607FCFACF97
:1004B000E889F989808185FFF5CFCE01B8DFF2CFD9
:1004C0008B8DFE01E80FF11DE35AFF4FF0820B8F79
:1004D000EA89FB898081806207C0EE89FF89608399
:1004E000E889F98980818064808381E090E0DF91F0
:1004F000CF911F910F91FF90EF900895CF93DF93CD
:10050000EC01888D8823C1F0EA89FB89808185FD13
:1005100005C0A889B9898C9186FD0EC00FB607FC6D
:10052000F5CF808185FFF2CFA889B9898C9185FFAD
:10053000EDCFCE017CDFE8CFDF91CF91089580E051
:1005400090E0892B19F06ADF811125C080E090E0EE
:10055000892B41F080E090E0892B21F00E9400007F
:1005600081111CC080E090E0892B41F080E090E098
:10057000892B21F00E940000811113C080E090E0DF
:10058000892BA1F080E090E0892B81F00E9400008F
:1005900081110AC008950E940000D8CF0E94000077
:1005A000E1CF0E940000EACF0C940000089590E093
:1005B000FC013197E231F10508F04DC08827EE5873
:1005C000FF4F8F4F55C4809180008F7703C080917B
:1005D00080008F7D80938000089580918000877FC8
:1005E000F9CF84B58F7702C084B58F7D84BD08951F
:1005F0008091B0008F7703C08091B0008F7D809391
:10060000B0000895809190008F7707C0809190008E
:100610008F7D03C080919000877F80939000089524
:100620008091A0008F7707C08091A0008F7D03C0CC
:100630008091A000877F8093A00008958091200181
:100640008F7707C0809120018F7D03C080912001AA
:10065000877F8093200108951F93CF93DF93282FE6
:1006600030E0F901EA5FFD4F8491F901E054FE4F5B
:10067000D491F901E658FE4FC491CC23C1F0162F56
:10068000811195DFEC2FF0E0EE0FFF1FEA5BFE4FCC
:10069000A591B4918FB7F894111105C09C91ED2FDD
:1006A000E095E92302C0EC91ED2BEC938FBFDF9135
:1006B000CF911F910895CF93DF9390E0FC01E05418
:1006C000FE4F2491FC01E658FE4F8491882361F18E
:1006D00090E0880F991FFC01E45DFE4FC591D49115
:1006E000FC01EA5BFE4FA591B491611109C09FB76F
:1006F000F8948881209582238883EC912E230BC067
:10070000623061F49FB7F8943881822F80958323FB
:100710008883EC912E2B2C939FBF06C08FB7F89443
:10072000E8812E2B28838FBFDF91CF91089500970A
:1007300061F0FC0101900020E9F73197AF01481BFF
:10074000590BBC0181E392E010CE80E090E0089567
:100750008F929F92AF92BF920F931F93CF93DF938D
:10076000CDB7DEB7A1970FB6F894DEBF0FBECDBFF1
:1007700019A2423008F44AE08E010F5D1F4F842E0B
:10078000912CA12CB12CA501940150D3E62FB901D5
:10079000CA0101501109EA3014F4E05D01C0E95CBE
:1007A000D801EC93232B242B252B69F7C801BFDF3D
:1007B000A1960FB6F894DEBF0FBECDBFDF91CF91EB
:1007C0001F910F91BF90AF909F908F90089558D335
:1007D0001F920F920FB60F9211242F933F938F9376
:1007E0009F93AF93BF9380912D0290912E02A09181
:1007F0002F02B091300230912C0223E0230F2D37CD
:1008000020F40196A11DB11D05C026E8230F029614
:10081000A11DB11D20932C0280932D0290932E02D6
:10082000A0932F02B0933002809128029091290268
:10083000A0912A02B0912B020196A11DB11D8093B7
:10084000280290932902A0932A02B0932B02BF9111
:10085000AF919F918F913F912F910F900FBE0F906D
:100860001F9018951F920F920FB60F9211240BB67E
:100870000F922F933F934F935F936F937F938F9339
:100880009F93AF93BF93EF93FF9381E392E0CFDD0C
:10089000FF91EF91BF91AF919F918F917F916F9158
:1008A0005F914F913F912F910F900BBE0F900FBE14
:1008B0000F901F9018951F920F920FB60F92112450
:1008C0000BB60F922F938F939F93EF93FF93E0912B
:1008D0004102F09142028081E0914702F09148028A
:1008E00082FD12C0908180914A028F5F8F732091A8
:1008F0004B02821751F0E0914A02F0E0EF5CFD4FAD
:10090000958F80934A0201C08081FF91EF919F9162
:100910008F912F910F900BBE0F900FBE0F901F90D5
:100920001895CF93DF9300D01F92CDB7DEB77894A0
:1009300084B5826084BD84B5816084BD85B58260E4
:1009400085BD85B5816085BD80916E008160809395
:100950006E001092810080918100826080938100FE
:10096000809181008160809381008091800081600E
:10097000809380008091B10084608093B100809169
:10098000B00081608093B00080919100826080937C
:1009900091008091910081608093910080919000FE
:1009A0008160809390008091A10082608093A1007B
:1009B0008091A10081608093A1008091A00081605E
:1009C0008093A00080912101826080932101809119
:1009D00021018160809321018091200181608093B9
:1009E000200180917A00846080937A0080917A005F
:1009F000826080937A0080917A00816080937A008F
:100A000080917A00806880937A001092C100E09112
:100A10004102F091420282E08083E0913D02F09138
:100A20003E021082E0913F02F091400280E180831B
:100A300010924902E0914502F091460286E08083DF
:100A4000E0914302F0914402808180618083E091D3
:100A50004302F0914402808188608083E0914302E8
:100A6000F0914402808180688083E0914302F0919C
:100A7000440280818F7D808381E392E0C3DC892BF7
:100A800009F48BC181E392E09BDC8A3A09F085C1CD
:100A900081E392E0B7DC892BD9F381E392E090DC2B
:100AA000853599F781E392E0ADDC0297DCF362E0F3
:100AB00070E0CE010196FADB8981843489F48A8161
:100AC000873509F0E3C081E392E09CDC0297DCF318
:100AD00062E070E0CE010196E9DB6A81898121C084
:100AE000813409F040C18A81873509F0FEC081E375
:100AF00092E088DC0397DCF363E070E0CE010196BE
:100B0000D5DB0A81802F90E0182F0027080F191FCE
:100B1000F98061E08F2DCFDD0115110521F460E032
:100B20008F2D9ADD3AC10F3F110509F4ADC0EF2DAD
:100B3000F0E0EA5FFD4FE4914E2F50E0FA0131976B
:100B4000E231F10508F09CC08827EC57FF4F8F4F2A
:100B50008FC184B5806884BD07BD1FC184B5806224
:100B600084BD08BD1AC18091800080688093800098
:100B7000109389000093880010C1809180008062EA
:100B80008093800010938B0000938A0006C18091AF
:100B9000800088608093800010938D0000938C000B
:100BA000FCC08091B00080688093B0000093B300D7
:100BB000F4C08091B00080628093B0000093B400D4
:100BC000ECC0809190008068809390001093990011
:100BD00000939800E2C08091900080628093900022
:100BE00010939B0000939A00D8C080919000886079
:100BF0008093900010939D0000939C00CEC0809144
:100C0000A00080688093A0008091A0008F7B8093DB
:100C1000A0001093A9000093A800BFC08091A0007D
:100C200080628093A0001093AB000093AA00B5C02F
:100C30008091A00088608093A0001093AD00009385
:100C4000AC00ABC08091200180688093200110939C
:100C5000290100932801A1C0809120018062809326
:100C6000200110932B0100932A0197C0809120014D
:100C700088608093200110932D0100932C018DC07A
:100C8000003811050CF44BCF61E04ACF823509F0F2
:100C90006FC081E392E0B6DB18161906D4F761E065
:100CA00070E0CE01019602DB298130E0F901EA5FB4
:100CB000FD4F8491F901E054FE4F0491F901E6588B
:100CC000FE4F1491112379F0811171DCE12FF0E0D6
:100CD000EE0FFF1FE05AFE4FA591B491EC91E02377
:100CE00061E009F03CC060E03AC0823509F040C0E4
:100CF00081E392E087DB18161906D4F761E070E013
:100D0000CE010196D3DA8981863308F0865390911B
:100D10007B00282F2870977F922B90937B00877001
:100D2000806480937C0080917A00806480937A0054
:100D300080917A0086FDFCCF009178008091790047
:100D400010E0182B61E00F3F08F460E0600F81E3D2
:100D500092E08EDB61E01F3F08F460E0610F81E309
:100D600092E086DB1AC0803541F58A818D34B9F076
:100D700080E192E0DCDC698170E080E090E04AE0B4
:100D8000E7DC82E292E0D3DC6A8170E080E090E010
:100D90004AE0DEDC85E292E0CADCD1DB6DCE81E3A5
:100DA00092E030DB0297DCF362E070E0CE01019666
:100DB0007DDA6A8189817FDCF0CF8635C9F68A8148
:100DC0008434B1F64AE065E570E080E090E0C0DC94
:100DD000E4CFE1E3F2E01382128288EE93E0A0E038
:100DE000B0E084839583A683B78384E092E0918307
:100DF000808385EC90E09587848784EC90E09787EA
:100E0000868780EC90E0918B808B81EC90E0938BD7
:100E1000828B82EC90E0958B848B86EC90E0978BB4
:100E2000868B118E128E138E148E0895A1E21A2EC7
:100E3000AA1BBB1BFD010DC0AA1FBB1FEE1FFF1F7E
:100E4000A217B307E407F50720F0A21BB30BE40BCE
:100E5000F50B661F771F881F991F1A9469F7609515
:100E60007095809590959B01AC01BD01CF010895CF
:100E7000EE0FFF1F881F8BBF0790F691E02D19948E
:0C0E800081E090E0F89400C0F894FFCFEF
:100E8C00000000003802B5010202E001F4017E020C
:100E9C00556E6B6E6F776E20636F6D6D616E643A1D
:080EAC0020002C20000D0A00BB
:00000001FF
